:0E0000000C9440000C9400000C9400000C9432
:10000E0000000C9400000C9400000C9400000C9462
:10001E0000000C9400000C9400000C9400000C9452
:10002E0000000C9400000C9400000C9400000C9442
:10003E0000000C9400000C9400000C9400000C9432
:10004E0000000C940000456C656374724F2D634F75
:10005E006E74724F6C0001002D4E414E00494E469B
:10006E00000080C001007001640002007401700085
:10007E000000F894EE27ECBBF1E0FBBFEBBFE5BF51
:10008E00F8E1F1BDE1BD8DE0A2E0BB27ED938A95CD
:10009E00E9F780E094E0A0E6ED930197E9F7E2E757
:1000AE00F0E085919591009761F0A591B59105903D
:1000BE001590BF01F00105900D920197E1F7FB013C
:1000CE00F0CFEFE5EDBFE4E0EEBFC0E6D1E00C947B
:1000DE009300F301D2010E94EE010895D2010E9415
:1000EE00DE013F010895E0E0EA93A0E00E944001A6
:1000FE00A4E5B0E00E947D017A926A92A0E6B1E09A
:10010E000E94F200E0E0EA93A1E00E944001A0E626
:10011E00B1E00E946E010895E0E0EBBBEABBEFE1B7
:10012E00E8BBE0E0E7BBE5BBE4BBEFEFE2BBE0E042
:10013E00E1BBE3BFE2BFECBFEFBDEEBDEDBDECBD7D
:10014E00E7BDE6BDEBBDEABDE9BDE8BDE2BDE5BD7F
:10015E00E4BDE3BDE5BFE4BFE9BFEAB9E0E8E8B955
:10016E00E0E0E0BFE6B9EDB9E6BFA0E10E94900184
:10017E0044245524B3DF809907C0662477240E9457
:10018E004D010E94BE01A5DF819907C0E1E0F0E0BC
:10019E003F010E94BE010E94C201829907C0E2E0A7
:1001AE00F0E03F010E94BE010E94C201839907C088
:1001BE00E3E0F0E03F010E94BE010E94C20184997B
:1001CE0007C0E4E0F0E03F010E94BE010E94C201C0
:1001DE008ADFD1CFFFCFBA93AA93A991B991E991B2
:1001EE00F99130962AF4E095F09531966DE26D9383
:1001FE00E89480E197E20DD088EE93E00AD084E691
:10020E00992707D08AE005D06E2F10D066276C9301
:10021E0008956627E817F90720F06395E81BF90B98
:10022E00C9F7662311F416F008956894605D6D9316
:10023E000895AA93E5B3EF70AE2FE881E07FEA2B25
:10024E00E5BB88E08A95F1F7AA9A84E18A95F1F7E1
:10025E00AA9884E18A95F1F788C0AA93A881E9DF6C
:10026E00E881E295E883A881E4DF88EC8A95F1F7CE
:10027E007CC0AA93E881F0E0EC58FE4FE081A981A2
:10028E00AE0FEBDF9980888022960895A2E00E943F
:10029E00C601ACE0E2DFA1E00E94C601E0E08E2ED6
:1002AE009E2E0895AA93A881AA3011F09B1448F0AF
:1002BE00E0E0EA938394A82DDCDFA881AA3009F44C
:1002CE0054C09394A89AA881C8DFA8984EC0BA9338
:1002DE00AA931A93A981BA81ED91A983BA831E2F8D
:1002EE00E03019F0A12FDEDFF5CF10C0BA93AA933C
:1002FE001A93E981FA813196E983FA833197E49171
:10030E001E2FE03019F0A12FCDDFF3CF18812396E9
:10031E000895AA93E4B3E06FE4BBA29AA09AA19ABF
:10032E00AA98A898A998B880E881E058E093760139
:10033E00E881E054E0937701A4E1B0E00E94D4019B
:10034E000E94CC010E94CC010E94CC01A0E271DF80
:10035E008CE291E00197F1F7A8E27FDFA4E07DDF68
:10036E00A5E87BDFA6E079DF91DF21960895ACE268
:10037E00B1E00C94D4010E944D010C9470000E94C7
:10038E003401A3E0B0E00C94D401A0E30E9420015C
:10039E008CE291E00197F1F70895109639F088EB11
:1003AE009BE00197F1F7A8951197C9F7089511965B
:1003BE0002D0FE2F1197E199FECFFF93FFB7F8946D
:1003CE00AEBBBFBBE09AEDB3FFBFFF91089507D060
:1003DE001196EF93EF2F03D0EF9111970895E19BB4
:1003EE0002C0A895FCCF9FB7F894AEBBBFBBE09AF6
:1003FE008DB3E81719F0EDBBE29AE19A9FBF08950D
:00000001FF
